:04000000FEEFFFF020
:102600000000000000DCCFD1350000000000C01544
:102610003F6042A20D70A5EC363BAAB83F4F38761A
:102620003F3CAA38338CBEBF350072313F1872313F
:102630003F4CBB31330EEADDB555B38A38610B36FA
:10264000BBABAA2A3E42F1533E55326C3E05A38BEA
:102650003EABAAAA3EB76DDB3E9A99193F6042A2F3
:102660000DCAF249710000804B0000803F0000C09D
:0F2670003F00AAB83FC623F6B80040763F0000EF
:1026800084C5B8F685C5B9F686C5BAF687C5BBF662
:10269000B8C660F6B9C661F6BAC662F6BBC663F6DE
:1026A00088C5B8F689C5B9F68AC5BAF68BC5BBF632
:1026B000B8C684F6B9C685F6BAC686F6BBC687F62E
:1026C000FF0E06016015A86FFF0E6115A96FFF0EC2
:1026D0006215AA6F7F0E6315AB6FFF0E8415986F9E
:1026E000FF0E8515996FFF0E86159A6F7F0E871561
:1026F0009B6F985199119A119B11D8A482EF13F0F6
:1027000084EF13F08FEF13F0000E0501846F000EBD
:10271000856F800E866F3F0E876FCBEF27F0800EA0
:10272000621909E13F0E631960116111D8A49BEF92
:1027300013F09DEF13F0A8EF13F0000E0501846F66
:10274000000E856F800E866F3F0E876FCBEF27F0F0
:10275000ABBFB9EF13F0A805000EA959800EAA5916
:102760007F0EAB59D8B0B7EF13F0B9EF13F0CAEF43
:1027700013F09BBFC8EF13F09805000E9959800E17
:102780009A597F0E9B59D8A0C8EF13F0CAEF13F0E7
:10279000E6EF13F084C501F585C502F586C503F59E
:1027A00087C504F588C505F589C506F58AC507F509
:1027B0008BC508F52CEC2AF001C584F502C585F51A
:1027C00003C586F504C587F5CBEF27F0000E506FE3
:1027D000000E516F000E526F000E536F63BFF5EF86
:1027E00013F0F3EF13F0A0EF14F09BBF01EF14F020
:1027F000800E9A5D4B0E9B59D8A001EF14F003EFA9
:1028000014F00DEF14F0020E506F000E516F000E19
:10281000526F000E536FA0EF14F09BBF19EF14F02E
:10282000800E9A5D3F0E9B59D8A019EF14F01BEF54
:1028300014F0A0EF14F0170E4B6E98C64CF599C625
:102840004DF59AC64EF59BC64FF54B662AEF14F030
:1028500032EF14F04F344F324E324D324C324B2E59
:1028600025EF14F0810E4C240601A06FFF0E4D20C1
:10287000A16FFF0E4E20A26FFF0E4F20A36FA0513D
:1028800017084B6E98C64CF599C64DF59AC64EF58D
:102890009BC64FF54B664FEF14F057EF14F04F34D3
:1028A0004F324E324D324C324B2E4AEF14F04CC563
:1028B000ACF64DC5ADF64EC5AEF64FC5AFF606014A
:1028C000A05117084B6EACC64CF5ADC64DF5AEC663
:1028D0004EF5AFC64FF54B2A73EF14F0D8904C3637
:1028E0004D364E364F364B2E6EEF14F098514C1835
:1028F0000DE199514D180AE19A514E1807E19B518B
:102900004F18D8A486EF14F088EF14F0A0EF14F05D
:10291000010EAC154B6E000EAD154C6E000EAE15D3
:102920004D6E000EAF154E6E4B500208506F000EEC
:102930004C54516F000E4D54526F000E4E54536F55
:10294000800E9A1909E17F0E9B1998119911D8A44C
:10295000ACEF14F0AEEF14F01AEF15F0800EAA19D8
:1029600009E13F0EAB19A811A911D8A4BAEF14F0D0
:10297000BCEF14F0C7EF14F0000E0501846F000ED9
:10298000856F800E866F3F0E876FCBEF27F0ABBF52
:10299000D6EF14F0A805000EA959800EAA593F0ED3
:1029A000AB59D8A0D6EF14F0D8EF14F0F4EF14F030
:1029B00087BFDFEF14F0DDEF14F0EAEF14F0000E44
:1029C0000501846F000E856F000E866F000E876F05
:1029D000CBEF27F088C584F589C585F58AC586F5CE
:1029E0008BC587F5CBEF27F087BFFBEF14F0F9EF2E
:1029F00014F00FEF15F088C501F589C502F58AC5F9
:102A000003F58BC504F527EC36F001C584F502C546
:102A100085F503C586F504C587F5CBEF27F0000ED5
:102A20000501846F000E856F000E866F000E876FA4
:102A3000CBEF27F0800E9A1909E13F0E9B199811F0
:102A40009911D8A426EF15F028EF15F055EF15F0E1
:102A500087BF2FEF15F02DEF15F04BEF15F0000E9F
:102A6000326E000E336E800E346E3F0E356E84C5AE
:102A700036F585C537F586C538F587C539F5A1EC36
:102A80002EF032C584F533C585F534C586F535C5D8
:102A900087F5CBEF27F084C584F585C585F586C518
:102AA00086F587C587F5CBEF27F0400E871984118F
:102AB00085118611D8A45FEF15F061EF15F07DEF59
:102AC00015F084C511F585C512F586C513F587C5C2
:102AD00014F584C515F585C516F586C517F587C5A2
:102AE00018F58CEC2CF011C584F512C585F513C5CD
:102AF00086F514C587F5CBEF27F03F0E87198411B3
:102B000085118611D8A487EF15F089EF15F0A4EF91
:102B100015F063BF8EEF15F090EF15F0A4EF15F0F0
:102B200084C53EF585C53FF586C540F587C541F5A9
:102B3000CCEC27F03EC584F53FC585F540C586F54C
:102B400041C587F5CBEF27F084C501F585C502F5B2
:102B500086C503F587C504F543EC36F001C570F66C
:102B600002C571F603C572F604C573F6800E060140
:102B7000AA190BE17F0EAB19A811A911D8B4C3EFA4
:102B800015F0C5EF15F0DEEF15F0A851A911AA1147
:102B9000AB11D8B4CEEF15F0D0EF15F0DEEF15F095
:102BA000800EAA1909E13F0EAB19A811A911D8A4EA
:102BB000DCEF15F0DEEF15F09DEF16F070C6B4F601
:102BC00071C6B5F672C6B6F673C6B7F687BFEDEF37
:102BD00015F0EBEF15F007EF16F0000E326E000E59
:102BE000336E800E346E3F0E356EB4C636F5B5C604
:102BF00037F5B6C638F5B7C639F5A1EC2EF032C5B3
:102C0000B4F633C5B5F634C5B6F635C5B7F6060124
:102C100063BF0FEF16F00DEF16F093EF16F0000EF6
:102C2000A8254B6E000EA9214C6E800EAA214D6E78
:102C3000C00EAB214E6E50514B104F6E51514C1087
:102C4000506E52514D10516E53514E10526E4F50A6
:102C5000501051105210D8A430EF16F032EF16F089
:102C600076EF16F0000E5F6E210E5E6EB4C62EF586
:102C7000B5C62FF5B6C630F5B7C631F5B4C62AF5D8
:102C8000B5C62BF5B6C62CF5B7C62DF504EC36F057
:102C90002AC532F52BC533F52CC534F52DC535F5D0
:102CA000B4C62EF5B5C62FF5B6C630F5B7C631F5A4
:102CB000B4C62AF5B5C62BF5B6C62CF5B7C62DF5A4
:102CC00004EC36F02AC536F52BC537F52CC538F59A
:102CD0002DC539F5A1EC2EF032C5B4F633C5B5F6E5
:102CE00034C5B6F635C5B7F693EF16F05005511159
:102CF00052115311D8A47FEF16F081EF16F093EF25
:102D000016F0B4C601F5B5C602F5B6C603F5B7C6EA
:102D100004F527EC36F001C5B4F602C5B5F603C5D7
:102D2000B6F604C5B7F6B4C684F5B5C685F5B6C61D
:102D300086F5B7C687F5CBEF27F0000E886F000E3B
:102D4000896F800E8A6F3F0E8B6F63BFACEF16F0FA
:102D5000AAEF16F00EEF17F0505151115211531106
:102D6000D8A4B5EF16F0B7EF16F0FBEF16F0000E93
:102D70005F6E210E5E6E84C52EF585C52FF586C566
:102D800030F587C531F584C52AF585C52BF586C58F
:102D90002CF587C52DF504EC36F02AC532F52BC588
:102DA00033F52CC534F52DC535F584C52EF585C50F
:102DB0002FF586C530F587C531F584C52AF585C55B
:102DC0002BF586C52CF587C52DF504EC36F02AC504
:102DD00036F52BC537F52CC538F52DC539F5A1ECE1
:102DE0002EF032C584F533C585F534C586F535C575
:102DF00087F5CBEF27F05005511152115311D8A48C
:102E000004EF17F006EF17F00EEF17F0000E886FC3
:102E1000000E896F800E8A6FBF0E8B6F9BBF1DEFF8
:102E200017F09805000E9959000E9A594D0E9B59AE
:102E3000D8A01DEF17F01FEF17F0A4EF19F0ABBFEC
:102E400031EF17F0F80EA85DFF0EA9597F0EAA59B1
:102E50003F0EAB59D8B02FEF17F031EF17F0A4EFBA
:102E600017F087BF36EF17F038EF17F06EEF17F057
:102E7000600E156E420E166EA20E176E0D0E186EB7
:102E800088C611F589C612F58AC613F58BC614F5E6
:102E90008CEC2CF011C5A4F612C5A5F613C5A6F648
:102EA00014C5A7F6A4C611F5A5C612F5A6C613F556
:102EB000A7C614F5600E156E420E166EA20E176EA2
:102EC0000D0E186E8CEC2CF011C584F512C585F52D
:102ED00013C586F514C587F5CBEF27F0CA0E156E1E
:102EE000F20E166E490E176E710E186E88C611F529
:102EF00089C612F58AC613F58BC614F58CEC2CF036
:102F000011C5A4F612C5A5F613C5A6F614C5A7F6F5
:102F1000A4C611F5A5C612F5A6C613F5A7C614F5E5
:102F2000CA0E156EF20E166E490E176E710E186EE1
:102F30008CEC2CF011C584F512C585F513C586F50A
:102F400014C587F5CBEF27F0ABBFB4EF17F0080E31
:102F5000A85D000EA959800EAA593F0EAB59D8A002
:102F6000B4EF17F0B6EF17F031EF18F087BFC5EFE9
:102F700017F087518611851106E18405D8B0C3EF9B
:102F800017F0C5EF17F0FBEF17F0600E156E420E4D
:102F9000166EA20E176E0D0E186E88C611F589C634
:102FA00012F58AC613F58BC614F58CEC2CF011C5FE
:102FB000A4F612C5A5F613C5A6F614C5A7F6A4C6B1
:102FC00011F5A5C612F5A6C613F5A7C614F5600E31
:102FD000156E420E166EA20E176E0D0E186E8CEC4C
:102FE0002CF011C584F512C585F513C586F514C5F9
:102FF00087F5CBEF27F0CA0E156EF20E166E490E4E
:10300000176E710E186E88C611F589C612F58AC63C
:1030100013F58BC614F58CEC2CF011C5A4F612C573
:10302000A5F613C5A6F614C5A7F6A4C611F5A5C640
:1030300012F5A6C613F5A7C614F5CA0E156EF20E44
:10304000166E490E176E710E186E8CEC2CF011C5B1
:1030500084F512C585F513C586F514C587F5CBEF44
:1030600027F070C601F571C602F572C603F573C686
:1030700004F5000E056E000E066E800E076EBF0E84
:10308000086E2CEC2AF001C5B0F602C5B1F603C5F6
:10309000B2F604C5B3F6000E156E000E166E800E65
:1030A000176E3E0E186EB0C611F5B1C612F5B2C657
:1030B00013F5B3C614F58CEC2CF011C52EF512C522
:1030C0002FF513C530F514C531F5AB0E2A6EAA0ED7
:1030D0002B6EAA0E2C6E3E0E2D6E04EC36F02AC519
:1030E000A4F62BC5A5F62CC5A6F62DC5A7F6B0C629
:1030F00015F5B1C616F5B2C617F5B3C618F5B0C6C4
:1031000011F5B1C612F5B2C613F5B3C614F58CECC1
:103110002CF011C554F612C555F613C556F614C554
:1031200057F6B0C615F5B1C616F5B2C617F5B3C653
:1031300018F5A4C611F5A5C612F5A6C613F5A7C6BF
:1031400014F58CEC2CF011C52EF512C52FF513C516
:1031500030F514C531F5000E2A6E000E2B6E000EF0
:103160002C6E3F0E2D6E04EC36F02AC548F62BC5AA
:1031700049F62CC54AF62DC54BF654C611F555C671
:1031800012F556C613F557C614F548C615F549C6C7
:1031900016F54AC617F54BC618F58CEC2CF011C580
:1031A00044F612C545F613C546F614C547F6B0C633
:1031B00011F5B1C612F5B2C613F5B3C614F5000E7B
:1031C000156EAA0E166EB80E176E3F0E186E8CECAA
:1031D0002CF011C574F612C575F613C576F614C534
:1031E00077F6700E156EA50E166EEC0E176E360E77
:1031F000186EB0C611F5B1C612F5B2C613F5B3C656
:1032000014F58CEC2CF011C52AF512C52BF513C55D
:103210002CF514C52DF53B0E156EAA0E166EB80EC4
:10322000176E3F0E186E44C611F545C612F546C618
:1032300013F547C614F58CEC2CF011C52EF512C50C
:103240002FF513C530F514C531F504EC36F02AC559
:1032500078F62BC579F62CC57AF62DC57BF674C6A3
:1032600001F575C602F576C603F577C604F578C68E
:1032700005F579C606F57AC607F57BC608F52CEC88
:103280002AF001C580F602C581F603C582F604C5A1
:1032900083F680C6B8F681C6B9F682C6BAF683C68A
:1032A000BBF6B8C690F6B9C691F6BAC692F6BBC6DA
:1032B00093F6000E06019015B86FF00E9115B96FD8
:1032C000FF0E9215BA6FFF0E9315BB6FB8C680F64E
:1032D000B9C681F6BAC682F6BBC683F674C62EF5A9
:1032E00075C62FF576C630F577C631F580C62AF556
:1032F00081C62BF582C62CF583C62DF504EC36F07D
:103300002AC594F62BC595F62CC596F62DC597F6CD
:1033100078C62AF579C62BF57AC62CF57BC62DF52D
:1033200094C62EF595C62FF596C630F597C631F59D
:1033300004EC36F02AC51CF62BC51DF62CC51EF66E
:103340002DC51FF6FEEF20F0000E7C6F000E7D6F86
:10335000000E7E6F000E7F6FABBFBAEF19F0AB515E
:1033600007E1800EAA5DD8B0B8EF19F0BAEF19F0F6
:10337000EDEF19F070C611F571C612F572C613F5AE
:1033800073C614F5000E156E000E166E800E176EC5
:103390004B0E186E8CEC2CF011C570F612C571F640
:1033A00013C572F614C573F6E80E06017C27FF0EEE
:1033B0007D23FF0E7E23FF0E7F2370C6B8F671C6F5
:1033C000B9F672C6BAF673C6BBF6B8C6A8F6B9C6E1
:1033D000A9F6BAC6AAF6BBC6ABF6170E4B6EA8C6C0
:1033E0004CF5A9C64DF5AAC64EF5ABC64FF54B66D2
:1033F000FCEF19F004EF1AF04F344F324E324D32D9
:103400004C324B2EF7EF19F0810E4C24506EFF0E0C
:103410004D20516EFF0E4E20526EFF0E4F20536E08
:10342000505006017C2751507D2352507E2353502B
:103430007F23FF0EA815AC6FFF0EA915AD6F7F0E91
:10344000AA15AE6F000EAB15AF6F000EAC11A86FD2
:10345000000EAD11A96F800EAE11AA6F3F0EAF1115
:10346000AB6FAFBF43EF1AF0AF510BE1720EAC5D23
:10347000C40EAD591C0EAE59D8B041EF1AF043EF4F
:103480001AF04DEF1AF0000EA06F000EA16F000EA3
:10349000A26F000EA36F7FEF1AF0AFBF5FEF1AF0BD
:1034A000AF510BE1D70EAC5DB30EAD595D0EAE5909
:1034B000D8B05DEF1AF05FEF1AF069EF1AF0010E65
:1034C000A06F000EA16F000EA26F000EA36F7FEF22
:1034D0001AF0000EA06F000EA16F000EA26F000E7A
:1034E000A36F010E7C27000E7D237E237F23000E19
:1034F000A827000EA923800EAA23FF0EAB23A8C67F
:10350000B8F6A9C6B9F6AAC6BAF6ABC6BBF6B8C62F
:1035100070F6B9C671F6BAC672F6BBC673F670C657
:103520002AF571C62BF572C62CF573C62DF5A0C60B
:103530004BF5A1C64CF5D8904B364C36D8904B364F
:103540004C36690E4B24F66E260E4C20F76EF86A48
:10355000000EF8220900F5C42EF50900F5C42FF578
:103560000900F5C430F50A00F5C431F504EC36F075
:103570002AC574F62BC575F62CC576F62DC577F6DB
:10358000000E326E000E336E800E346E3F0E356EBE
:1035900070C605F571C606F572C607F573C608F55F
:1035A000A0C64BF5A1C64CF5D8904B364C36D890FA
:1035B0004B364C36690E4B24F66E260E4C20F76EB9
:1035C000F86A000EF8220900F5C401F50900F5C4F7
:1035D00002F50900F5C403F50A00F5C404F52CEC66
:1035E0002AF001C536F502C537F503C538F504C51F
:1035F00039F5A1EC2EF032C578F633C579F634C52D
:103600007AF635C57BF674C611F575C612F576C621
:1036100013F577C614F578C615F579C616F57AC68A
:1036200017F57BC618F58CEC2CF011C55CF612C5AD
:103630005DF613C55EF614C55FF65CC66CF65DC636
:103640006DF65EC66EF65FC66FF66CC6B8F66DC6F2
:10365000B9F66EC6BAF66FC6BBF6B8C690F6B9C66E
:1036600091F6BAC692F6BBC693F6000E0601901507
:10367000B86FF00E9115B96FFF0E9215BA6FFF0E6D
:103680009315BB6FB8C66CF6B9C66DF6BAC66EF6C2
:10369000BBC66FF6A8C64BF5A9C64CF5AAC64DF534
:1036A000ABC64EF54E344E324D324C324B32000EDC
:1036B0004B144F6EF00E4C14506EFF0E4D14516EA5
:1036C000FF0E4E14526E000E4F10906F000E5010F1
:1036D000916F000E5110926F200E5210936FA0C682
:1036E0004BF5A1C64CF5A2C64DF5A3C64EF5150E79
:1036F000D8904B364C364D364E36E82E78EF1BF0D0
:1037000090514B244F6E91514C20506E92514D2050
:10371000516E93514E20526E000E4F24B86F000E22
:103720005020B96F400E5120BA6F000E5220BB6F6F
:10373000B8C668F6B9C669F6BAC66AF6BBC66BF60D
:10374000A0C64BF5A1C64CF5D8904B364C36D89058
:103750004B364C36690E4B24F66E260E4C20F76E17
:10376000F86A000EF8220900F5C42EF50900F5C428
:103770002FF50900F5C430F50A00F5C431F568C627
:103780002AF569C62BF56AC62CF56BC62DF504EC37
:1037900036F02AC594F62BC595F62CC596F62DC5A0
:1037A00097F670C62AF571C62BF572C62CF573C64E
:1037B0002DF594C62EF595C62FF596C630F597C60D
:1037C00031F504EC36F02AC534F62BC535F62CC598
:1037D00036F62DC537F668C615F569C616F56AC6FC
:1037E00017F56BC618F56CC611F56DC612F56EC6E9
:1037F00013F56FC614F58CEC2CF011C52EF512C51F
:103800002FF513C530F514C531F574C62AF575C604
:103810002BF576C62CF577C62DF504EC36F02AC5C7
:1038200094F62BC595F62CC596F62DC597F634C69D
:1038300015F535C616F536C617F537C618F56CC634
:1038400011F56DC612F56EC613F56FC614F58CEC46
:103850002CF011C52EF512C52FF513C530F514C582
:1038600031F594C62AF595C62BF596C62CF597C664
:103870002DF504EC36F02AC554F62BC555F62CC5AB
:1038800056F62DC557F654C611F555C612F556C64F
:1038900013F557C614F578C615F579C616F57AC628
:1038A00017F57BC618F58CEC2CF011C530F612C557
:1038B00031F613C532F614C533F65CC611F55DC694
:1038C00012F55EC613F55FC614F55CC615F55DC648
:1038D00016F55EC617F55FC618F58CEC2CF011C511
:1038E0008CF612C58DF613C58EF614C58FF6550EDF
:1038F000056E320E066E6C0E076E3E0E086E420EA0
:10390000156EF10E166E530E176E3E0E186E8CC6A7
:1039100011F58DC612F58EC613F58FC614F58CEC15
:103920002CF011C501F512C502F513C503F514C538
:1039300004F52CEC2AF001C5A4F602C5A5F603C5D2
:10394000A6F604C5A7F6050E056EA30E066E8B0E31
:10395000076E3E0E086E8CC615F58DC616F58EC622
:1039600017F58FC618F5A4C611F5A5C612F5A6C69B
:1039700013F5A7C614F58CEC2CF011C501F512C592
:1039800002F513C503F514C504F52CEC2AF001C5A6
:1039900054F602C555F603C556F604C557F6AB0EE8
:1039A000056EAA0E066EAA0E076E3E0E086E8CC637
:1039B00015F58DC616F58EC617F58FC618F554C6C3
:1039C00011F555C612F556C613F557C614F58CEC0D
:1039D0002CF011C501F512C502F513C503F514C588
:1039E00004F52CEC2AF001C548F602C549F603C5DA
:1039F0004AF604C54BF6B70E056E6D0E066EDB0E6D
:103A0000076E3E0E086E8CC615F58DC616F58EC671
:103A100017F58FC618F548C611F549C612F54AC6FE
:103A200013F54BC614F58CEC2CF011C501F512C53D
:103A300002F513C503F514C504F52CEC2AF001C5F5
:103A400038F602C539F603C53AF604C53BF69A0EB8
:103A5000056E990E066E190E076E3F0E086E8CC627
:103A600015F58DC616F58EC617F58FC618F538C62E
:103A700011F539C612F53AC613F53BC614F58CECB0
:103A80002CF011C501F512C502F513C503F514C5D7
:103A900004F52CEC2AF001C500F602C501F603C5B9
:103AA00002F604C503F68CC615F58DC616F58EC64E
:103AB00017F58FC618F58CC611F58DC612F58EC692
:103AC00013F58FC614F58CEC2CF011C504F612C555
:103AD00005F613C506F614C507F600C611F501C6AE
:103AE00012F502C613F503C614F504C615F505C68E
:103AF00016F506C617F507C618F58CEC2CF011C59F
:103B00004CF612C54DF613C54EF614C54FF630C629
:103B100015F531C616F532C617F533C618F55CC66D
:103B200005F55DC606F55EC607F55FC608F56CC609
:103B300001F56DC602F56EC603F56FC604F52CECF3
:103B40002AF001C511F502C512F503C513F504C528
:103B500014F58CEC2CF011C558F612C559F613C5A6
:103B60005AF614C55BF64CC601F54DC602F54EC6B5
:103B700003F54FC604F558C605F559C606F55AC6ED
:103B800007F55BC608F52CEC2AF001C54CF602C51A
:103B90004DF603C54EF604C54FF66CC611F56DC65D
:103BA00012F56EC613F56FC614F56CC615F56DC625
:103BB00016F56EC617F56FC618F58CEC2CF011C50E
:103BC0008CF612C58DF613C58EF614C58FF6000E51
:103BD000056E000E066E400E076E400E086E8CC617
:103BE00001F58DC602F58EC603F58FC604F52CECE3
:103BF0002AF001C558F602C559F603C55AF604C5A0
:103C00005BF658C601F559C602F55AC603F55BC600
:103C100004F54CC605F54DC606F54EC607F54FC66C
:103C200008F52CEC2AF001C568F602C569F603C553
:103C30006AF604C56BF668C6B8F669C6B9F66AC610
:103C4000BAF66BC6BBF6B8C690F6B9C691F6BAC658
:103C500092F6BBC693F6000E06019015B86FF00EF3
:103C60009115B96FFF0E9215BA6FFF0E9315BB6FCA
:103C7000B8C668F6B9C669F6BAC66AF6BBC66BF6C8
:103C8000000E056E000E066E400E076EC00E086E2A
:103C900068C601F569C602F56AC603F56BC604F588
:103CA0002CEC2AF001C53CF602C53DF603C53EF6F4
:103CB00004C53FF68CC62EF58DC62FF58EC630F5A1
:103CC0008FC631F53CC62AF53DC62BF53EC62CF510
:103CD0003FC62DF504EC36F02AC540F62BC541F65B
:103CE0002CC542F62DC543F64CC62AF54DC62BF51C
:103CF0004EC62CF54FC62DF540C62EF541C62FF504
:103D000042C630F543C631F504EC36F02AC534F628
:103D10002BC535F62CC536F62DC537F66CC611F514
:103D20006DC612F56EC613F56FC614F568C615F5A7
:103D300069C616F56AC617F56BC618F58CEC2CF03B
:103D400011C574F612C575F613C576F614C577F667
:103D500068C615F569C616F56AC617F56BC618F577
:103D600030C611F531C612F532C613F533C614F557
:103D70008CEC2CF011C501F512C502F513C503F545
:103D800014C504F55CC615F55DC616F55EC617F5D7
:103D90005FC618F534C611F535C612F536C613F5EB
:103DA00037C614F58CEC2CF011C505F512C506F5D7
:103DB00013C507F514C508F52CEC2AF001C578F6F3
:103DC00002C579F603C57AF604C57BF674C601F51B
:103DD00075C602F576C603F577C604F578C605F50F
:103DE00079C606F57AC607F57BC608F52CEC2AF0ED
:103DF00001C59CF602C59DF603C59EF604C59FF657
:103E00009CC6B8F69DC6B9F69EC6BAF69FC6BBF666
:103E1000B8C690F6B9C691F6BAC692F6BBC693F686
:103E2000000E06019015B86FF00E9115B96FFF0ED8
:103E30009215BA6FFF0E9315BB6FB8C69CF6B9C644
:103E40009DF6BAC69EF6BBC69FF674C62EF575C61D
:103E50002FF576C630F577C631F59CC62AF59DC696
:103E60002BF59EC62CF59FC62DF504EC36F02AC521
:103E700094F62BC595F62CC596F62DC597F678C603
:103E80002AF579C62BF57AC62CF57BC62DF594C696
:103E90002EF595C62FF596C630F597C631F504EC8C
:103EA00036F02AC564F62BC565F62CC566F62DC519
:103EB00067F69CC611F59DC612F59EC613F59FC602
:103EC00014F5000E156E400E166E760E176E3F0E30
:103ED000186E8CEC2CF011C520F612C521F613C516
:103EE00022F614C523F64F0E156E380E166E760E9A
:103EF000176E3F0E186E64C611F565C612F566C6DC
:103F000013F567C614F58CEC2CF011C505F512C538
:103F100006F513C507F514C508F5C60E156E230E74
:103F2000166EF60E176EB80E186E9CC611F59DC66D
:103F300012F59EC613F59FC614F58CEC2CF011C536
:103F400001F512C502F513C503F514C504F52CECF3
:103F50002AF001C558F602C559F603C55AF604C53C
:103F60005BF658C601F559C602F55AC603F55BC69D
:103F700004F5A0C64BF5A1C64CF5D8904B364C368F
:103F8000D8904B364C36010E4B24F66E260E4C2044
:103F9000F76EF86A000EF8220900F5C405F509006D
:103FA000F5C406F50900F5C407F50A00F5C408F5DF
:103FB0002CEC2AF001C524F602C525F603C526F629
:103FC00004C527F67CC601F57DC602F57EC603F55D
:103FD0007FC604F5010EDAEC32F001C5B0F602C579
:103FE000B1F603C5B2F604C5B3F624C605F525C679
:103FF00006F526C607F527C608F520C601F521C631
:1040000002F522C603F523C604F52CEC2AF001C5FF
:1040100058F602C559F603C55AF604C55BF6A0C6A4
:104020004BF5A1C64CF5D8904B364C36D8904B3654
:104030004C36090E4B24F66E260E4C20F76EF86AAD
:10404000000EF8220900F5C405F50900F5C406F5CF
:104050000900F5C407F50A00F5C408F558C601F5CE
:1040600059C602F55AC603F55BC604F52CEC2AF0D6
:1040700001C508F602C509F603C50AF604C50BF624
:1040800008C601F509C602F50AC603F50BC604F514
:10409000B0C605F5B1C606F5B2C607F5B3C608F554
:1040A0002CEC2AF001C580F602C581F603C582F624
:1040B00004C583F680C6B8F681C6B9F682C6BAF6DC
:1040C00083C6BBF6B8C690F6B9C691F6BAC692F6E4
:1040D000BBC693F6000E06019015B86FF00E911551
:1040E000B96FFF0E9215BA6FFF0E9315BB6FB8C66E
:1040F00080F6B9C681F6BAC682F6BBC683F6B0C6EC
:104100002EF5B1C62FF5B2C630F5B3C631F580C66F
:104110002AF581C62BF582C62CF583C62DF504EC55
:1041200036F02AC594F62BC595F62CC596F62DC506
:1041300097F6A0C64BF5A1C64CF5D8904B364C3639
:10414000D8904B364C36090E4B24F66E260E4C207A
:10415000F76EF86A000EF8220900F5C42EF5090082
:10416000F5C42FF50900F5C430F50A00F5C431F5A2
:1041700094C62AF595C62BF596C62CF597C62DF54F
:1041800004EC36F02AC540F62BC541F62CC542F6A4
:104190002DC543F620C62EF521C62FF522C630F5D3
:1041A00023C631F540C62AF541C62BF542C62CF58B
:1041B00043C62DF504EC36F02AC50CF62BC50DF6DA
:1041C0002CC50EF62DC50FF624C62AF525C62BF5EF
:1041D00026C62CF527C62DF50CC62EF50DC62FF5D7
:1041E0000EC630F50FC631F504EC36F02AC51CF6C4
:1041F0002BC51DF62CC51EF62DC51FF688C5B8F6B5
:1042000089C5B9F68AC5BAF68BC5BBF6B8C690F6AD
:10421000B9C691F6BAC692F6BBC693F6000E060171
:104220009015B86FF00E9115B96FFF0E9215BA6F19
:10423000FF0E9315BB6FB8C628F6B9C629F6BAC6E5
:104240002AF6BBC62BF680C615F581C616F582C6C2
:1042500017F583C618F528C62EF529C62FF52AC6E8
:1042600030F52BC631F588C52AF589C52BF58AC5E9
:104270002CF58BC52DF504EC36F02AC511F52BC5B0
:1042800012F52CC513F52DC514F58CEC2CF011C5C9
:1042900010F612C511F613C512F614C513F610C6A2
:1042A00001F511C602F512C603F513C604F51CC6C6
:1042B00015F51DC616F51EC617F51FC618F588C5D7
:1042C00011F589C512F58AC513F58BC514F58CEC6B
:1042D0002CF011C505F512C506F513C507F514C573
:1042E00008F52CEC2AF001C564F602C565F603C595
:1042F00066F604C567F628C611F529C612F52AC662
:1043000013F52BC614F580C615F581C616F582C6C1
:1043100017F583C618F58CEC2CF011C59CF612C568
:104320009DF613C59EF614C59FF664C601F565C6D5
:1043300002F566C603F567C604F59CC605F59DC67D
:1043400006F59EC607F59FC608F52CEC2AF001C5B8
:10435000B4F602C5B5F603C5B6F604C5B7F6B4C6DD
:10436000B8F6B5C6B9F6B6C6BAF6B7C6BBF6B8C69D
:10437000ACF6B9C6ADF6BAC6AEF6BBC6AFF6060128
:10438000AFBFCFEF21F0AC05000EAD59000EAE5916
:10439000430EAF59D8A0CFEF21F0D1EF21F007EFB6
:1043A00022F0CA0E156EF20E166E490E176E710EC1
:1043B000186E88C611F589C612F58AC613F58BC624
:1043C00014F58CEC2CF011C5A4F612C5A5F613C596
:1043D000A6F614C5A7F6A4C611F5A5C612F5A6C67D
:1043E00013F5A7C614F5CA0E156EF20E166E490E19
:1043F000176E710E186E8CEC2CF011C584F512C579
:1044000085F513C586F514C587F5CBEF27F0430E68
:10441000AF19AC11AD11AE11D8A411EF22F013EF0A
:1044200022F086EF22F09CC62EF59DC62FF59EC683
:1044300030F59FC631F5B4C62AF5B5C62BF5B6C61C
:104440002CF5B7C62DF504EC36F02AC532F52BC590
:1044500033F52CC534F52DC535F53C0E056EAA0E89
:10446000066E380E076E330E086E64C601F565C61B
:1044700002F566C603F567C604F52CEC2AF001C503
:1044800036F502C537F503C538F504C539F5C6EC70
:1044900034F0D8B04EEF22F050EF22F048EF23F086
:1044A000CA0E156EF20E166E490E176E710E186E4C
:1044B00088C611F589C612F58AC613F58BC614F5A0
:1044C0008CEC2CF011C5A4F612C5A5F613C5A6F602
:1044D00014C5A7F6A4C611F5A5C612F5A6C613F510
:1044E000A7C614F5CA0E156EF20E166E490E176E9B
:1044F000710E186E8CEC2CF011C584F512C585F583
:1045000013C586F514C587F5CBEF27F0FF0EAC1564
:104510004B6EFF0EAD154C6EFF0EAE154D6E7F0E41
:10452000AF154E6E4EBEA1EF22F04B04000E4C585C
:10453000160E4D58430E4E58D8A0A1EF22F0A3EF0F
:1045400022F0D9EF22F0600E156E420E166EA20E0A
:10455000176E0D0E186E88C611F589C612F58AC63B
:1045600013F58BC614F58CEC2CF011C5A4F612C50E
:10457000A5F613C5A6F614C5A7F6A4C611F5A5C6DB
:1045800012F5A6C613F5A7C614F5600E156E420EF9
:10459000166EA20E176E0D0E186E8CEC2CF011C557
:1045A00084F512C585F513C586F514C587F5CBEFDF
:1045B00027F0160EAE1909E1C30EAF19AC11AD11FB
:1045C000D8A4E5EF22F0E7EF22F048EF23F09CC6F5
:1045D0002EF59DC62FF59EC630F59FC631F5B4C6A3
:1045E0002AF5B5C62BF5B6C62CF5B7C62DF504ECE5
:1045F00036F02AC532F52BC533F52CC534F52DC55B
:1046000035F564C636F565C637F566C638F567C64E
:1046100039F5C6EC34F0D8A010EF23F012EF23F0F8
:1046200048EF23F0600E156E420E166EA20E176E46
:104630000D0E186E88C611F589C612F58AC613F5D7
:104640008BC614F58CEC2CF011C5A4F612C5A5F69A
:1046500013C5A6F614C5A7F6A4C611F5A5C612F58E
:10466000A6C613F5A7C614F5600E156E420E166E9B
:10467000A20E176E0D0E186E8CEC2CF011C584F581
:1046800012C585F513C586F514C587F5CBEF27F060
:10469000FF0E0601AC152C6FFF0EAD152D6FFF0E32
:1046A000AE152E6F7F0EAF152F6F170E4B6E2CC6EB
:1046B0004CF52DC64DF52EC64EF52FC64FF54B6663
:1046C00064EF23F06CEF23F04F344F324E324D3213
:1046D0004C324B2E5FEF23F0810E4C240601A06F6D
:1046E000FF0E4D20A16FFF0E4E20A26FFF0E4F2038
:1046F000A36F000E7C6F000E7D6F000E7E6F000EAC
:104700007F6F2FBF90EF23F02C05000E2D59000E68
:104710002E593F0E2F59D8A090EF23F092EF23F09F
:1047200072EF24F0A0C64BF5010E4B26000E4C6E26
:10473000000E4D6E800E4E6E000E4F6E4B66A3EF58
:1047400023F0ABEF23F04F344F324E324D324C3228
:104750004B2E9EEF23F00601AC514C247C6FAD51E3
:104760004D207D6FAE514E207E6FAF514F207F6F39
:10477000810E4B6EFF0E4C6EFF0E4D6EFF0E4E6E99
:10478000170E4F6E7CC650F57DC651F57EC652F5AC
:104790007FC653F54F66CFEF23F0D7EF23F05334A6
:1047A00053325232513250324F2ECAEF23F0505012
:1047B0004B240601A06F000E4C20A16F000E4D206F
:1047C000A26F000E4E20A36FA0C64BF5FF0E4C6EDD
:1047D000FF0E4D6E7F0E4E6E000E4F6E4B66F3EF6A
:1047E00023F0FBEF23F04F344F324E324D324C3238
:1047F0004B2EEEEF23F04C1C506E4D1C516E4E1C98
:10480000526E4F1C536E06017C515014B86F7D518F
:104810005114B96F7E515214BA6F7F515314BB6F4C
:10482000B8C6B0F6B9C6B1F6BAC6B2F6BBC6B3F6EC
:10483000A05117084B6EFF0E7C154C6EFF0E7D15B8
:104840004D6E7F0E7E154E6E000E7F154F6E000E64
:104850004C10506E000E4D10516E800E4E10526E68
:10486000000E4F10536E4B6638EF24F040EF24F0EB
:10487000533453325232513250324B2E33EF24F0F4
:1048800050C57CF651C57DF652C57EF653C57FF600
:104890000601AFBF50EF24F04EEF24F058EF24F0A4
:1048A0007F1F7E1F7D1F7C6D000E7D237E237F2357
:1048B0009CC62AF59DC62BF59EC62CF59FC62DF5E8
:1048C000B0C62EF5B1C62FF5B2C630F5B3C631F578
:1048D00004EC36F02AC59CF62BC59DF62CC59EF639
:1048E0002DC59FF664C601F565C602F566C603F5DB
:1048F00067C604F59CC605F59DC606F59EC607F578
:104900009FC608F52CEC2AF001C5B0F602C5B1F639
:1049100003C5B2F604C5B3F6B0C6B8F6B1C6B9F66B
:10492000B2C6BAF6B3C6BBF6B8C690F6B9C691F62B
:10493000BAC692F6BBC693F6000E06019015B86F84
:10494000800E9115B96FFF0E9215BA6FFF0E931579
:10495000BB6FB8C6B0F6B9C6B1F6BAC6B2F6BBC63A
:10496000B3F6B0C611F5B1C612F5B2C613F5B3C6AB
:1049700014F5000E156E720E166E310E176E3F0E88
:10498000186E8CEC2CF011C574F612C575F613C5B3
:1049900076F614C577F69CC62EF59DC62FF59EC6F5
:1049A00030F59FC631F5B0C62AF5B1C62BF5B2C6B3
:1049B0002CF5B3C62DF504EC36F02AC594F62BC5BC
:1049C00095F62CC596F62DC597F6180E156E720E37
:1049D000166E310E176E3F0E186E94C62EF595C6E4
:1049E0002FF596C630F597C631F564C62AF565C62B
:1049F0002BF566C62CF567C62DF504EC36F02AC5F6
:104A000011F52BC512F52CC513F52DC514F58CEC3D
:104A10002CF011C514F612C515F613C516F614C5FB
:104A200017F614C601F515C602F516C603F517C626
:104A300004F58C0E156EBE0E166EBF0E176E350E7B
:104A4000186EB0C611F5B1C612F5B2C613F5B3C6ED
:104A500014F58CEC2CF011C505F512C506F513C53F
:104A600007F514C508F52CEC2AF001C578F602C547
:104A700079F603C57AF604C57BF674C601F575C6EA
:104A800002F576C603F577C604F578C605F579C64E
:104A900006F57AC607F57BC608F52CEC2AF001C5A9
:104AA000B4F602C5B5F603C5B6F604C5B7F674C6C6
:104AB0002EF575C62FF576C630F577C631F5B4C636
:104AC0002AF5B5C62BF5B6C62CF5B7C62DF504EC00
:104AD00036F02AC594F62BC595F62CC596F62DC54D
:104AE00097F678C62AF579C62BF57AC62CF57BC6DB
:104AF0002DF594C62EF595C62FF596C630F597C6BA
:104B000031F504EC36F02AC544F62BC545F62CC524
:104B100046F62DC547F6B4C611F5B5C612F5B6C6AC
:104B200013F5B7C614F5B4C615F5B5C616F5B6C671
:104B300017F5B7C618F58CEC2CF011C5B0F612C5F8
:104B4000B1F613C5B2F614C5B3F60E0E056EEA0E35
:104B5000066EDD0E076EB50E086E4C0E156EBB0EA2
:104B6000166E310E176E330E186EB0C611F5B1C643
:104B700012F5B2C613F5B3C614F58CEC2CF011C5C2
:104B800001F512C502F513C503F514C504F52CECA7
:104B90002AF001C5A4F602C5A5F603C5A6F604C50C
:104BA000A7F6550E056EB30E066E8A0E076E380E0A
:104BB000086EB0C615F5B1C616F5B2C617F5B3C680
:104BC00018F5A4C611F5A5C612F5A6C613F5A7C615
:104BD00014F58CEC2CF011C501F512C502F513C5C6
:104BE00003F514C504F52CEC2AF001C554F602C5F2
:104BF00055F603C556F604C557F6610E056E0B0E45
:104C0000066E360E076EBB0E086EB0C615F5B1C641
:104C100016F5B2C617F5B3C618F554C611F555C644
:104C200012F556C613F557C614F58CEC2CF011C5C9
:104C300001F512C502F513C503F514C504F52CECF6
:104C40002AF001C548F602C549F603C54AF604C56F
:104C50004BF6AB0E056EAA0E066E2A0E076E3E0EC2
:104C6000086EB0C615F5B1C616F5B2C617F5B3C6CF
:104C700018F548C611F549C612F54AC613F54BC6D4
:104C800014F58CEC2CF011C501F512C502F513C515
:104C900003F514C504F52CEC2AF001C538F602C55D
:104CA00039F603C53AF604C53BF6B4C62AF5B5C6CF
:104CB0002BF5B6C62CF5B7C62DF5B0C615F5B1C6A1
:104CC00016F5B2C617F5B3C618F538C611F539C6CC
:104CD00012F53AC613F53BC614F58CEC2CF011C551
:104CE0002EF512C52FF513C530F514C531F504ECBA
:104CF00036F02AC580F62BC581F62CC582F62DC567
:104D000083F6000E056E000E066E000E076EC00ED6
:104D1000086E80C601F581C602F582C603F583C61A
:104D200004F52CEC2AF001C536F502C537F503C5AC
:104D300038F504C539F580C615F581C616F582C665
:104D400017F583C618F5B4C611F5B5C612F5B6C683
:104D500013F5B7C614F58CEC2CF011C532F512C55D
:104D600033F513C534F514C535F5A1EC2EF032C575
:104D70003CF633C53DF634C53EF635C53FF644C670
:104D800005F545C606F546C607F547C608F544C607
:104D900015F545C616F546C617F547C618F5B4C647
:104DA00011F5B5C612F5B6C613F5B7C614F58CECF9
:104DB0002CF011C501F512C502F513C503F514C594
:104DC00004F52CEC2AF001C518F602C519F603C546
:104DD0001AF604C51BF63CC62AF53DC62BF53EC6A1
:104DE0002CF53FC62DF518C62EF519C62FF51AC697
:104DF00030F51BC631F504EC36F02AC54CF62BC550
:104E00004DF62CC54EF62DC54FF6B4C62EF5B5C6DB
:104E10002FF5B6C630F5B7C631F54CC62AF54DC6E6
:104E20002BF54EC62CF54FC62DF504EC36F02AC5F1
:104E300094F62BC595F62CC596F62DC597F6000E63
:104E40002A6E000E2B6E800E2C6E3F0E2D6E94C6B9
:104E50002EF595C62FF596C630F597C631F504ECBC
:104E600036F02AC5B4F62BC5B5F62CC5B6F62DC559
:104E7000B7F6B4C6B8F6B5C6B9F6B6C6BAF6B7C68A
:104E8000BBF6B8C6ACF6B9C6ADF6BAC6AEF6BBC68A
:104E9000AFF67CC64BF57DC64CF57EC64DF57FC69C
:104EA0004EF5170ED8904B364C364D364E36E82E12
:104EB00052EF27F04B500601AC274C50AD234D501C
:104EC000AE234E50AF23170E4B6EACC64CF5ADC69D
:104ED0004DF5AEC64EF5AFC64FF54B6672EF27F0F7
:104EE0007AEF27F04F344F324E324D324C324B2E48
:104EF0006DEF27F04FBE89EF27F04F504E104D1049
:104F000006E14C04D8B087EF27F089EF27F0A1EF36
:104F100027F0B4C62AF5B5C62BF5B6C62CF5B7C62C
:104F20002DF57CC62EF57DC62FF5C0EC31F02AC5D7
:104F3000B4F62BC5B5F62CC5B6F62DC5B7F6B1EF50
:104F400027F0ACC6B8F6ADC6B9F6AEC6BAF6AFC66F
:104F5000BBF6B8C6B4F6B9C6B5F6BAC6B6F6BBC6A1
:104F6000B7F688C611F589C612F58AC613F58BC641
:104F700014F5B4C615F5B5C616F5B6C617F5B7C619
:104F800018F58CEC2CF011C584F512C585F513C508
:104F900086F514C587F512003EC568F53FC569F56D
:104FA00040C56AF541C56BF568C580F569C581F5F1
:104FB0006AC582F56BC583F5000E05018015426E4A
:104FC000000E8115436E800E8215446E7F0E831590
:104FD000456E800E441809E17F0E451842104310BB
:104FE000D8A4F5EF27F0F7EF27F025EF28F03EC51E
:104FF00015F53FC516F540C517F541C518F53EC571
:1050000011F53FC512F540C513F541C514F58CECFB
:105010002CF011C501F512C502F513C503F514C531
:1050200004F53EC505F53FC506F540C507F541C584
:1050300008F52CEC2AF001C53EF502C53FF503C585
:1050400040F504C541F52BEF2AF083BF34EF28F07B
:1050500083518211811106E18005D8B032EF28F02A
:1050600034EF28F070EF28F0FF0E8015426EFF0E2F
:105070008115436EFF0E8215446E7F0E8315456EBB
:105080004250431044104510D8A449EF28F04BEF8C
:1050900028F055EF28F03EC53EF53FC53FF540C529
:1050A00040F541C541F52BEF2AF083BF5CEF28F0B6
:1050B0005AEF28F070EF28F0000E5F6E210E5E6E42
:1050C0007D0E016E260E026E82EC36F001C53EF5B5
:1050D00002C53FF503C540F504C541F52BEF2AF0A5
:1050E000170E426E80C543F581C544F582C545F56E
:1050F00083C546F542667FEF28F087EF28F04634F7
:105100004632453244324332422E7AEF28F043C5CC
:1051100078F544C579F545C57AF546C57BF50501B1
:10512000785179117A117B11D8A499EF28F09BEF6F
:1051300028F0CBEF28F0000E646F000E656F000EB4
:10514000666F000E676FB0EF28F0D8908037813718
:1051500082378337010E6427000E65236623672399
:1051600082AFB5EF28F0B7EF28F0A5EF28F0FF0EDB
:105170006425426EFF0E6521436EFF0E6621446E6C
:10518000FF0E6721456E4250785F4350795B445073
:105190007A5B45507B5B810E7827FF0E7923FF0EEB
:1051A0007A23FF0E7B23FF0E8015426EFF0E8115C2
:1051B000436E7F0E8215446E000E8315456E000E01
:1051C0004210806F000E4310816F800E4410826F7A
:1051D000000E4510836F78A1F0EF28F0F2EF28F071
:1051E000FAEF28F080518027815181238251822358
:1051F000835183237B357B337A3379337833805102
:105200008027815181238251822383518323000E81
:10521000606F000E616F000E626F000E636F60C5FD
:105220006CF561C56DF562C56EF563C56FF5000E71
:105230007C6F000E7D6F000E7E6F010E7F6F69EF39
:1052400029F060517C25706F61517D21716F625131
:105250007E21726F63517F21736F7051805D715138
:105260008159725182598351800A426E7351800A6A
:105270004258D8A03EEF29F040EF29F05CEF29F02A
:1052800070517C25606F71517D21616F72517E215B
:10529000626F73517F21636F7051805F7151815BC9
:1052A0007251825B7351835B7C516C277D516D23FE
:1052B0007E516E237F516F2380518027815181233E
:1052C0008251822383518323D8907F337E337D3371
:1052D0007C337C517D117E117F11D8A472EF29F0AF
:1052E00074EF29F021EF29F080518111821183118F
:1052F000D8B47DEF29F07FEF29F0E0EF29F0000E20
:10530000746F000E756F800E766F3F0E776F74C5E9
:1053100032F575C533F576C534F577C535F5000E2C
:10532000366E000E376E800E386E3F0E396EC6EC4C
:1053300034F0D8A09EEF29F0A0EF29F0E0EF29F09B
:10534000000E0501746F000E756F800E766F3F0EB4
:10535000776F000E326E000E336E800E346E3F0E8D
:10536000356E74C536F575C537F576C538F577C52C
:1053700039F5C6EC34F0D8B0C0EF29F0C2EF29F00F
:10538000CBEF29F0020E05016C27000E6D236E2372
:105390006F23E0EF29F0010E05016C15426E000E3F
:1053A0006D15436E000E6E15446E000E6F15456E42
:1053B00042506C2743506D2344506E2345506F2359
:1053C0006CC542F56DC543F56EC544F56FC545F531
:1053D00045344532443243324232000E4224050104
:1053E000806F000E4320816F000E4420826F3F0EBD
:1053F0004520836F78C542F579C543F57AC544F5F4
:105400007BC545F5170ED8904236433644364536AF
:10541000E82E03EF2AF04250802743508123445066
:1054200082234550832380C568F581C569F582C50F
:105430006AF583C56BF568C574F569C575F56AC508
:1054400076F56BC577F574C53EF575C53FF576C540
:1054500040F577C541F512000450800B0D6E0450E5
:1054600004240F6E03AE37EF2AF039EF2AF03AEF3B
:105470002AF00F800F50D8B440EF2AF042EF2AF004
:1054800057EF2AF00F28D8A448EF2AF04AEF2AF065
:1054900052EF2AF0000E016E000E026E000E036E37
:1054A000000E046E038E000E046E5FEF2AF0000EF5
:1054B000016E000E026E000E036E000E046E0850A8
:1054C000800B0E6E0D500E18D8B469EF2AF06BEFFA
:1054D0002AF06CEF2AF00D8C085008240E6E07AEEF
:1054E00074EF2AF076EF2AF077EF2AF00E800E5054
:1054F000D8B47DEF2AF07FEF2AF094EF2AF00E283F
:10550000D8A485EF2AF087EF2AF08FEF2AF0000E5B
:10551000056E000E066E000E076E000E086E078EFA
:10552000000E086E9CEF2AF0000E056E000E066E4F
:10553000000E076E000E086E0F500E5CD8B0A3EF81
:105540002AF0A5EF2AF0CCEF2AF00DACAAEF2AF052
:10555000ACEF2AF0AEEF2AF0800E0D1A0FC510F551
:105560000EC50FF510C50EF501C510F505C501F501
:1055700010C505F502C510F506C502F510C506F5FE
:1055800003C510F507C503F510C507F504C510F5EB
:1055900008C504F510C508F5000E106E0F500EC5B5
:1055A00009F50A6A095E000E0A5A0ABEE1EF2AF0FE
:1055B0000A5009E11A0E095CD8A0E1EF2AF0E3EFE6
:1055C0002AF01AEF2BF00150021003100410D8A497
:1055D000ECEF2AF0EFEF2AF0010EF0EF2AF0000EC8
:1055E000106E000E016E000E026E000E036E000EB5
:1055F000046E0EC50FF523EF2BF010A002EF2BF079
:1056000004EF2BF00AEF2BF0D89010300109106E48
:105610000CEF2BF0D890103201A011EF2BF013EF0C
:105620002BF014EF2BF0108E0434043203320232CC
:1056300001320F2A0E500F5CD8A021EF2BF023EF80
:105640002BF0FDEF2AF00DBC28EF2BF02AEF2BF00A
:105650006AEF2BF00F50D8A430EF2BF032EF2BF085
:105660003CEF2BF0000E016E000E026E000E036E7A
:10567000000E046E8BEF2CF005500126065002221E
:10568000075003220850042204A049EF2BF04BEFEF
:105690002BF0F7EF2BF010A050EF2BF052EF2BF088
:1056A00058EF2BF0D89010300109106E5AEF2BF004
:1056B000D890103201A05FEF2BF061EF2BF062EF7A
:1056C0002BF0108E043404320332023201320F2ADE
:1056D000F7EF2BF00550015C0650025807500358B5
:1056E0000450800A096E0850800A0958D8B07BEF30
:1056F0002BF07DEF2BF0A8EF2BF00150055C096E2D
:10570000025006580A6E035007580B6E0450085892
:105710000C6EFF0E0924016EFF0E0A20026EFF0EB2
:105720000B20036EFF0E0C20046E800E0D1A106C01
:105730001050D8A49EEF2BF0A0EF2BF0B0EF2BF081
:10574000010E0126000E022203220422B0EF2BF0EC
:105750000550015E0650025A0750035A0850045A79
:105760000150021003100410D8A4B9EF2BF0BBEFC6
:105770002BF0F0EF2BF01050D8A4C1EF2BF0C3EFBB
:105780002BF0F0EF2BF0000E016E000E026E000EFB
:10579000036E000E046E8BEF2CF0D89001360236AB
:1057A0000336043610AED7EF2BF0D9EF2BF0DAEF3B
:1057B0002BF0018010A0DFEF2BF0E1EF2BF0E5EFF5
:1057C0002BF0D8801036E7EF2BF0D89010360F5022
:1057D000D8B4EDEF2BF0EFEF2BF0F0EF2BF00F063E
:1057E00003AEF5EF2BF0F7EF2BF0CDEF2BF0000E23
:1057F0000E6E10AEFEEF2BF000EF2CF018EF2CF039
:1058000010C509F57F0E0916D8B409EF2CF00BEF7F
:105810002CF00FEF2CF0010E0E6E18EF2CF001A003
:1058200014EF2CF016EF2CF018EF2CF00BEF2CF0FF
:105830000E50D8B41EEF2CF020EF2CF04BEF2CF0D4
:10584000010E0126000E02220322042204A02BEFE7
:105850002CF02DEF2CF04BEF2CF001C509F502C513
:105860000AF503C50BF504C50CF50C340C320B32EC
:105870000A32093209C501F50AC502F50BC503F55F
:105880000CC504F50F28D8B448EF2CF04AEF2CF0E3
:105890004BEF2CF00F2A0F28D8B451EF2CF053EF18
:1058A0002CF05BEF2CF00F50D8A459EF2CF05BEFED
:1058B0002CF06DEF2CF0000E016E000E026E000E4B
:1058C000036E000E046E0F50D8A469EF2CF06BEF3E
:1058D0002CF06DEF2CF0000E0D6E0FA072EF2CF07F
:1058E00074EF2CF077EF2CF0038E78EF2CF0039E02
:1058F000D8900F30046E0DAE80EF2CF082EF2CF0BC
:1059000083EF2CF0048E01C501F502C502F503C535
:1059100003F504C504F512001450800B1D6E1450DD
:105920001424236E13AE97EF2CF099EF2CF09AEF1E
:105930002CF023802350D8B4A0EF2CF0A2EF2CF051
:10594000B5EF2CF02328D8A4A8EF2CF0AAEF2CF068
:10595000B2EF2CF0000E116E000E126E000E136EE0
:10596000000E146E138EBDEF2CF0000E116E000EA3
:10597000126E000E136E000E146E1850800B1D1A5E
:1059800018501824226E17AEC8EF2CF0CAEF2CF076
:10599000CBEF2CF022802250D8B4D1EF2CF0D3EFF3
:1059A0002CF0E6EF2CF02228D8A4D9EF2CF0DBEF76
:1059B0002CF0E3EF2CF0000E156E000E166E000EAC
:1059C000176E000E186E178EEEEF2CF0000E156E8F
:1059D000000E166E000E176E000E186E2250D8B410
:1059E000F4EF2CF0F6EF2CF0FEEF2CF02350D8A4BF
:1059F000FCEF2CF0FEEF2CF008EF2DF0000E116EF6
:105A0000000E126E000E136E000E146EA0EF2EF03C
:105A100017501102F3C428F5F4C429F528501E6E5E
:105A20001F6A206A216A2950246E256A266A276A1D
:105A300016501202F3C428F5F4C429F528501E2686
:105A4000000E1F222022212229502426000E25226A
:105A50002622272215501302F3C428F5F4C429F591
:105A600028501E26000E1F222022212229502426E3
:105A7000000E25222622272220C521F51FC520F54C
:105A80001EC51FF51E6A15501202F3C428F5F4C492
:105A900029F528501E2629501F22000E2022000E14
:105AA000212216501102F3C428F5F4C429F5285018
:105AB0001E2629501F22000E2022000E212220C562
:105AC00021F51FC520F51EC51FF51E6A15501102D0
:105AD000F3C428F5F4C429F528501E2629501F22A6
:105AE000000E2022000E212217501202F3C428F5C6
:105AF000F4C429F52850242629502522000E2622F8
:105B0000000E272216501302F3C428F5F4C429F519
:105B10002850242629502522000E2622000E272256
:105B200017501302F3C428F5F4C429F52850196E50
:105B300029501A6E1B6A1C6A1BC51CF51AC51BF579
:105B400019C51AF5196A195024261A5025221B5016
:105B500026221C5027221EC519F51FC51AF520C57F
:105B60001BF521C51CF5190EBBEF2DF0D8901C328A
:105B70001B321A321932E82EB6EF2DF019502426B6
:105B80001A5025221B5026221C50272220C521F501
:105B90001FC520F51EC51FF51E6A225023C519F525
:105BA0001A6A1926000E1A22820E1924286EFF0E78
:105BB0001A20296EF1EF2DF0D8902436253626369E
:105BC000273621AEE6EF2DF0E8EF2DF0E9EF2DF0CE
:105BD0002480D8901E361F36203621362806D8A0BD
:105BE000290626AEF6EF2DF0F8EF2DF0DCEF2DF0C4
:105BF000000E226E21AEFFEF2DF001EF2EF025EF0B
:105C00002EF0FF0E1E14196EFF0E1F141A6EFF0EDB
:105C100020141B6E7F0E21141C6E19501A101B10BD
:105C20001C10D8B416EF2EF018EF2EF01CEF2EF04B
:105C3000010E226E25EF2EF024A021EF2EF023EF8F
:105C40002EF025EF2EF018EF2EF02250D8B42BEFC7
:105C50002EF02DEF2EF051EF2EF0010E2426000E27
:105C600025222622272227A038EF2EF03AEF2EF009
:105C700051EF2EF024C519F525C51AF526C51BF5DB
:105C800027C51CF51C341C321B321A32193219C5B7
:105C900024F51AC525F51BC526F51CC527F5284A88
:105CA000292A29BE5CEF2EF0295008E12828D8A027
:105CB0005CEF2EF05EEF2EF068EF2EF0000E246EFB
:105CC000000E256E800E266E7F0E276E96EF2EF04C
:105CD00029BE75EF2EF0295006E12804D8B073EFE5
:105CE0002EF075EF2EF081EF2EF0000E246E000ED8
:105CF000256E000E266E000E276E000E1D6E96EFAE
:105D00002EF028C523F5FF0E2416FF0E25167F0E54
:105D10002616000E271623A090EF2EF092EF2EF0FD
:105D200093EF2EF0268ED8902330276E1D50271229
:105D300024C511F525C512F526C513F527C514F59B
:105D400012003550800B426E35503524496E34AE0A
:105D5000ACEF2EF0AEEF2EF0AFEF2EF049804950B1
:105D6000D8B4B5EF2EF0B7EF2EF0CCEF2EF04928D7
:105D7000D8A4BDEF2EF0BFEF2EF0C7EF2EF0000E2F
:105D8000326E000E336E000E346E000E356E348EA1
:105D9000000E356ED4EF2EF0000E326E000E336E14
:105DA000000E346E000E356E3950800B421A395099
:105DB00039244A6E38AEDFEF2EF0E1EF2EF0E2EF3D
:105DC0002EF04A804A50D8B4E8EF2EF0EAEF2EF0D9
:105DD000FFEF2EF04A28D8A4F0EF2EF0F2EF2EF0CD
:105DE000FAEF2EF0000E366E000E376E000E386E93
:105DF000000E396E388E000E396E07EF2FF0000E50
:105E0000366E000E376E000E386E000E396E36504C
:105E1000371038103910D8A410EF2FF012EF2FF0F0
:105E20002AEF2FF0000E326E000E336E000E346E2D
:105E3000000E356E800E34127F0E35124250351230
:105E400032C532F533C533F534C534F535C535F5CE
:105E50006DEF30F04950D8A430EF2FF032EF2FF033
:105E60003CEF2FF0000E326E000E336E000E346EDB
:105E7000000E356E6DEF30F04A5049C53AF53B6A79
:105E80003A5E000E3B5A7F0E3A24436E000E3B20D2
:105E9000446E32C53EF533C53FF534C540F535C5D2
:105EA00041F5000E326E000E336E000E346E000EA1
:105EB000356E000E456E000E466E000E476E000EEB
:105EC000486E000E4A6E9DEF2FF04A50D8B46BEF2B
:105ED0002FF06DEF2FF084EF2FF0D8903E363F3645
:105EE00040364136D890323633363436353648AEC1
:105EF0007CEF2FF07EEF2FF07FEF2FF03280D890E5
:105F0000453646364736483636503E5C37503F5861
:105F10003850405839504158D8A091EF2FF093EFA6
:105F20002FF09CEF2FF0488C36503E5E37503F5A92
:105F30003850405A3950415A4A2A190E4A64A3EF40
:105F40002FF0A5EF2FF065EF2FF03E503F104010DF
:105F50004110D8B4AEEF2FF0B0EF2FF0C8EF2FF014
:105F60004580C8EF2FF0D890323633363436353688
:105F700048AEBDEF2FF0BFEF2FF0C0EF2FF0328013
:105F8000D89045364636473648364306D8A04406AC
:105F900034AECDEF2FF0CFEF2FF0B3EF2FF0000E98
:105FA0004A6E48AED6EF2FF0D8EF2FF0FCEF2FF06F
:105FB000FF0E45143A6EFF0E46143B6EFF0E47145B
:105FC0003C6E7F0E48143D6E3A503B103C103D1025
:105FD000D8B4EDEF2FF0EFEF2FF0F3EF2FF0010E2D
:105FE0004A6EFCEF2FF032A0F8EF2FF0FAEF2FF00F
:105FF000FCEF2FF0EFEF2FF04A50D8B402EF30F063
:1060000004EF30F028EF30F0010E3226000E33227C
:106010003422352235A00FEF30F011EF30F028EFA9
:1060200030F032C53AF533C53BF534C53CF535C5DE
:106030003DF53D343D323C323B323A323AC532F5E1
:106040003BC533F53CC534F53DC535F5434A442AD7
:1060500044BE33EF30F0445008E14328D8A033EF7A
:1060600030F035EF30F040EF30F0000E446E436812
:10607000000E326E000E336E000E346E000E356E62
:1060800044BE4DEF30F0445006E14304D8B04BEF2E
:1060900030F04DEF30F05BEF30F0000E446E000E4C
:1060A000436E000E326E000E336E000E346E000E24
:1060B000356E000E426E43C549F549A062EF30F0DF
:1060C00064EF30F067EF30F0348E68EF30F0349EDC
:1060D000D8904930356E1EEF2FF01200C390C38266
:1060E000C384C386A30E016E550EE82EFED7012E83
:1060F000FCD700F0D3B87FEF30F081EF30F08CEFB9
:1061000030F0A30E016E550EE82EFED7012EFCD7FF
:1061100000F0010EBFEF31F0D3BA91EF30F093EF02
:1061200030F09EEF30F0A30E016E550EE82EFED734
:10613000012EFCD700F0020EBFEF31F0D3BCA3EF6D
:1061400030F0A5EF30F0B0EF30F0A30E016E550E39
:10615000E82EFED7012EFCD700F0030EBFEF31F082
:10616000D3BEB5EF30F0B7EF30F0C2EF30F0A30E92
:10617000016E550EE82EFED7012EFCD700F00A0E58
:10618000BFEF31F0C380C392C384C386A30E016EF8
:10619000550EE82EFED7012EFCD700F0D3B8D3EF72
:1061A00030F0D5EF30F0E0EF30F0A30E016E550E79
:1061B000E82EFED7012EFCD700F0040EBFEF31F021
:1061C000D3BAE5EF30F0E7EF30F0F2EF30F0A30EA6
:1061D000016E550EE82EFED7012EFCD700F0050EFD
:1061E000BFEF31F0D3BCF7EF30F0F9EF30F004EF50
:1061F00031F0A30E016E550EE82EFED7012EFCD70E
:1062000000F0060EBFEF31F0D3BE09EF31F00BEF17
:1062100031F016EF31F0A30E016E550EE82EFED7C9
:10622000012EFCD700F00B0EBFEF31F0C380C3820C
:10623000C394C386A30E016E550EE82EFED7012E21
:10624000FCD700F0D3B827EF31F029EF31F034EF6D
:1062500031F0A30E016E550EE82EFED7012EFCD7AD
:1062600000F0070EBFEF31F0D3BA39EF31F03BEF5A
:1062700031F046EF31F0A30E016E550EE82EFED739
:10628000012EFCD700F0080EBFEF31F0D3BC4BEF6E
:1062900031F04DEF31F058EF31F0A30E016E550E95
:1062A000E82EFED7012EFCD700F0090EBFEF31F02B
:1062B000D3BE5DEF31F05FEF31F06AEF31F0A30E46
:1062C000016E550EE82EFED7012EFCD700F00C0E05
:1062D000BFEF31F0C380C382C384C396A30E016EA7
:1062E000550EE82EFED7012EFCD700F0D3B87BEF79
:1062F00031F07DEF31F088EF31F0A30E016E550ED5
:10630000E82EFED7012EFCD700F00E0EBFEF31F0C5
:10631000D3BA8DEF31F08FEF31F09AEF31F0A30E59
:10632000016E550EE82EFED7012EFCD700F0000EB0
:10633000BFEF31F0D3BC9FEF31F0A1EF31F0ACEF04
:1063400031F0A30E016E550EE82EFED7012EFCD7BC
:1063500000F00F0EBFEF31F0D3BEB1EF31F0B3EF6D
:1063600031F0BEEF31F0A30E016E550EE82EFED7D0
:10637000012EFCD700F00D0EBFEF31F0780E1200A9
:106380002AC538F52BC539F52CC53AF52DC53BF591
:106390002FBED4EF31F02F5009E1800E2E5CD8A033
:1063A000D4EF31F0D6EF31F034EF32F038C511F5DB
:1063B00039C512F53AC513F53BC514F5000E156E37
:1063C000000E166E000E176E7F0E186E8CEC2CF001
:1063D00011C538F512C539F513C53AF514C53BF5A5
:1063E000810E2E26FF0E2F222FBE00EF32F02F50EF
:1063F00009E1800E2E5CD8A000EF32F002EF32F0FF
:106400009EEF32F038C511F539C512F53AC513F5CE
:106410003BC514F5000E156E000E166E000E176EBD
:106420007F0E186E8CEC2CF011C538F512C539F5BD
:1064300013C53AF514C53BF5810E2E26FF0E2F220B
:106440002FBE2CEF32F02F5009E1800E2E5CD8A029
:106450002CEF32F02EEF32F09EEF32F0000E2F6E66
:106460007F0E2E6E9EEF32F02FAE40EF32F0820E96
:106470002E5CFF0E2F58D8B040EF32F042EF32F0D2
:106480009EEF32F038C511F539C512F53AC513F54E
:106490003BC514F5000E156E000E166E800E176EBD
:1064A0000C0E186E8CEC2CF011C538F512C539F5B0
:1064B00013C53AF514C53BF5660E2E26000E2F22A5
:1064C0002FAE6CEF32F0820E2E5CFF0E2F58D8B03C
:1064D0006CEF32F06EEF32F09EEF32F038C511F50E
:1064E00039C512F53AC513F53BC514F5000E156E06
:1064F000000E166E800E176E0C0E186E8CEC2CF0C3
:1065000011C538F512C539F513C53AF514C53BF573
:10651000660E2E26000E2F222FAE98EF32F0820E3E
:106520002E5CFF0E2F58D8B098EF32F09AEF32F071
:106530009EEF32F0FF0E2F6E820E2E6E7F0E2E24F7
:10654000306E000E2F20316E326A336A170ED890EB
:106550003036313632363336E82EA7EF32F030C5DA
:1065600034F531C535F532C536F533C537F534C5A3
:1065700011F535C512F536C513F537C514F538C50F
:1065800015F539C516F53AC517F53BC518F58CEC68
:106590002CF011C52AF512C52BF513C52CF514C521
:1065A0002DF52AC52AF52BC52BF52CC52CF52DC5A7
:1065B0002DF51200096E0950D8B4E1EF32F0E3EF87
:1065C00032F005EF33F004BEEAEF32F0E8EF32F0DC
:1065D00005EF33F001C505F502C506F503C507F55E
:1065E00004C508F5051E061E071E081E052A000E16
:1065F00006220722082205C50BF506C50CF507C5BE
:106600000DF508C50EF50DEF33F001C50BF502C50C
:106610000CF503C50DF504C50EF50150021003106D
:106620000410D8A416EF33F018EF33F022EF33F054
:10663000000E016E000E026E000E036E000E046E60
:10664000B3EF33F0960E0A6E2CEF33F00A2AD8908F
:106650000E320D320C320B32000E0B14056E000E92
:106660000C14066E000E0D14076EFE0E0E14086E4E
:106670000550061007100810D8A441EF33F043EF7F
:1066800033F026EF33F051EF33F00A2A010E0B26D8
:10669000000E0C220D220E22D8900E320D320C323A
:1066A0000B32000E0B14056E000E0C14066E000E5D
:1066B0000D14076EFF0E0E14086E0550061007101D
:1066C0000810D8A466EF33F068EF33F045EF33F0ED
:1066D00070EF33F00A06D8900B360C360D360E36B6
:1066E0000DBE75EF33F077EF33F07FEF33F0020E2E
:1066F0000A607DEF33F07FEF33F06AEF33F00AB0DA
:1067000084EF33F086EF33F087EF33F00D9ED890AF
:106710000A320AC505F5066A076A086A05C508F55A
:10672000076A066A056A05500B1206500C120750DC
:106730000D1208500E120950D8B4A1EF33F0A3EF98
:1067400033F0ABEF33F004BEAAEF33F0A8EF33F031
:10675000ABEF33F00E8E0BC501F50CC502F50DC580
:1067600003F50EC504F51200036EF7EF33F03F0E8C
:10677000046E40EF34F0060E046E40EF34F05B0E12
:10678000046E40EF34F04F0E046E40EF34F0660EAE
:10679000046E40EF34F06D0E046E40EF34F07D0E69
:1067A000046E40EF34F0070E046E40EF34F07F0EBD
:1067B000046E40EF34F0670E046E40EF34F0770E55
:1067C000046E40EF34F07C0E046E40EF34F0580E4F
:1067D000046E40EF34F05E0E046E40EF34F0790E3C
:1067E000046E40EF34F0710E046E40EF34F003504D
:1067F000016E026A0250000AD8B401EF34F0F3EFE0
:1068000033F00150000AD8B4B7EF33F0010AD8B41E
:10681000BBEF33F0030AD8B4BFEF33F0010AD8B4AA
:10682000C3EF33F0070AD8B4C7EF33F0010AD8B486
:10683000CBEF33F0030AD8B4CFEF33F0010AD8B46A
:10684000D3EF33F00F0AD8B4D7EF33F0010AD8B43E
:10685000DBEF33F0030AD8B4DFEF33F0010AD8B42A
:10686000E3EF33F0070AD8B4E7EF33F0010AD8B406
:10687000EBEF33F0030AD8B4EFEF33F0F3EF33F07C
:106880000450120005018E358F35596E5950D8A429
:106890004CEF34F04EEF34F058EF34F0000E8C6FC4
:1068A000000E8D6F000E8E6F000E8F6FC5EF34F0EF
:1068B0008CC554F58DC555F58EC556F58FC557F564
:1068C000200E68EF34F0D890573256325532543299
:1068D000E82E63EF34F05450586E8E8FFF0E8C17F5
:1068E000FF0E8D17FF0E8E17000E8F17960E595E36
:1068F00059BE7FEF34F07DEF34F095EF34F059500E
:10690000800A970FD8B087EF34F089EF34F08BEF1F
:1069100034F04EEF34F0D8908F338E338D338C3388
:10692000593E8BEF34F0ADEF34F01F0E59649BEFFE
:1069300034F09DEF34F0A5EF34F04EEF34F0D89002
:106940008C378D378E378F3759065950D8A4ABEF17
:1069500034F0ADEF34F09FEF34F05850D8B4B3EFCB
:1069600034F0B5EF34F0BDEF34F08F1F8E1F8D1F64
:106970008C6D000E8D238E238F238CC58CF58DC5D9
:106980008DF58EC58EF58FC58FF51200000E321471
:106990003A6E000E33143B6E800E34143C6E7F0E44
:1069A00035143D6E3A503B103C103D10D8A4DBEF3F
:1069B00034F0DDEF34F0E5EF34F0000E326E000E0F
:1069C000336E000E346E000E356E000E36143A6EC5
:1069D000000E37143B6E800E38143C6E7F0E391457
:1069E0003D6E3A503B103C103D10D8A4FAEF34F005
:1069F000FCEF34F004EF35F0000E366E000E376E0B
:106A0000000E386E000E396E35AE09EF35F00BEF23
:106A100035F014EF35F0326C331ED8B0332A341E03
:106A2000D8B0342A800E355639AE19EF35F01BEF49
:106A300035F024EF35F0366C371ED8B0372A381EC3
:106A4000D8B0382A800E3956000E321A000E331A8A
:106A5000000E341A800E351A000E361A000E371A40
:106A6000000E381A800E391A3650325C37503358BF
:106A70003850345839503558D8B041EF35F043EFDD
:106A800035F046EF35F0D89047EF35F0D88012005A
:106A9000000E05019D6F9D51016E026A036A046A32
:106AA000000EDAEC32F001C594F502C595F503C588
:106AB00096F504C597F594C588F595C589F596C5ED
:106AC0008AF597C58BF5000E0501846F000E856F62
:106AD000000E866F400E876F40EC13F084C58CF576
:106AE00085C58DF586C58EF587C58FF542EC34F0EA
:106AF0008CC598F58DC599F598C59AF599C59BF5FE
:106B00009AC5C0F405019D51080DF35090C55AF582
:106B100091C55BF592C55CF593C55DF5E82A96EFE6
:106B200035F0D8905D325C325B325A32E82E91EF0C
:106B300035F05A509C6F9C51B4EC33F0BF6EA30EED
:106B40005A6E550EE82EFED75A2EFCD700F00501DE
:106B50009D2B030E9D65AFEF35F0B1EF35F04BEF98
:106B600035F01200000EC26E000EC16E000EBE6E39
:106B7000000EC36E000EBF6E000EC06E070ECA6E12
:106B8000F00ECB6EC668000EC76EF00EC86EC968F8
:106B900004011869F00E106F000E086F070E206FC9
:106BA000000E286F0069000E196F000E296F000E8D
:106BB000216F000E096F000E016F000E116F000EA5
:106BC0000201896F000E886F000E876F000E866FBE
:106BD000000E0401226F000E2A6F000E026F000EDD
:106BE0000A6F000E126F000E1A6F03690B691369AA
:106BF0001B69070E236F2B6904690C6914691C69F2
:106C00000F0E246F2C691200000E2E1A000E2F1A80
:106C1000000E301A800E311A2AC501F52BC502F577
:106C20002CC503F52DC504F52EC505F52FC506F5B4
:106C300030C507F531C508F52CEC2AF001C52AF559
:106C400002C52BF503C52CF504C52DF51200015026
:106C5000021003100410D8B430EF36F032EF36F0E3
:106C60003AEF36F0000E011A000E021A000E031A57
:106C7000800E041A01C501F502C502F503C503F52E
:106C800004C504F512009EC505F59FC506F5A0C50F
:106C900007F5A1C508F501C505F502C506F503C54B
:106CA00007F504C508F5089E05C501F506C502F5FA
:106CB00007C503F508C504F51200ABEC36F06EEC21
:106CC00030F0040E0501906F030E916F020E926F6B
:106CD000010E936F48EC35F05FEF36F0FEEFFFF0FA
:106CE000000E0001606F000E616F000E636F000EFA
:106CF000646F000E656F000E666F000E676F000E0A
:106D0000686F1200FF0E056EFF0E066EFF0E076E17
:106D10007F0E086E05C501F506C502F507C503F52A
:106D200008C504F51200620E0001AD6F000EAF6FD2
:106D3000000EB36F020EB16F000EB06F000EAC6F9D
:106D400012000501A16BA06B9F6B9E6B5F6A5E6A70
:106D500000015DEF36F070EC36F0B2EC35F093ECFC
:046D600036F01200F7
:020000040001F9
:04FFFC00A1EF36F04B
:020000040020DA
:10000000FF0FFF0FFF0FFF0FFF0FFF0FFF0FFF0F80
:10001000FF0FFF0FFF0FFF0FFF0FFF0FFF0FFF0F70
:10002000FF0FFF0FFF0FFF0FFF0FFF0FFF0FFF0F60
:10003000FF0FFF0FFF0FFF0FFF0FFF0FFF0FFF0F50
:020000040030CA
:0A000000ECFFF7FF9FFFFFFFFFFF7B
:00000001FF
