:04000000FEEFFFF020
:020000040001F9
:10FEA40000017CEFFFF06AECFFF0B0ECFFF05CECDB
:10FEB400FFF01200620E0001AD6F000EAF6F000E76
:10FEC400B36F020EB16F000EB06F000EAC6F120074
:10FED400000E0001606F000E616F000E636F000E74
:10FEE400646F000E656F000E666F000E676F000E84
:10FEF400686F120055ECFFF0000EBE6E520E016EDC
:10FF04002A0EE82EFED7012EFCD7180EBE6E520E16
:10FF1400016E2A0EE82EFED7012EFCD73C0EBE6ED3
:10FF2400520E016E2A0EE82EFED7012EFCD77E0E4D
:10FF3400BE6E520E016E2A0EE82EFED7012EFCD79D
:10FF4400BE68520E016E2A0EE82EFED7012EFCD793
:10FF5400000EBE6E7EEFFFF0FEEFFFF0000EC26EED
:10FF6400000EC16E000EBE6E000EC36E000EBF6E9C
:10FF7400000EC06E070ECA6ECB68000EC66EC76850
:10FF8400C868C9680401186910690869070E206FF8
:10FF94002869000E006F000E196F000E296F000E05
:10FFA400216F000E096F000E016F000E116F000E1D
:10FFB4000201896F000E886F000E876F000E866F36
:10FFC400000E0401226F000E2A6F000E026F000E55
:10FFD4000A6F000E126F000E1A6F03690B69136922
:10FFE4001B69070E236F2B6904690C6914691C696A
:0CFFF4000F0E246F2C69120052EFFFF07A
:020000040020DA
:10000000FF0FFF0FFF0FFF0FFF0FFF0FFF0FFF0F80
:10001000FF0FFF0FFF0FFF0FFF0FFF0FFF0FFF0F70
:10002000FF0FFF0FFF0FFF0FFF0FFF0FFF0FFF0F60
:10003000FF0FFF0FFF0FFF0FFF0FFF0FFF0FFF0F50
:020000040030CA
:0A000000ECFFF7FF9FFFFFFFFFFF7B
:00000001FF
