:04000000FEEFFFF020
:10260000000D0A204144432056414C55453D2000D1
:0126100000C9
:10261200000EC26E000EC16E000EBE6E000EC36EC4
:10262200000EBF6E000EC06E070ECA6ECB68C66883
:10263200C768BF0EC86EC96804011869000E106F22
:10264200000E086F070E206F28690069000E196FCF
:10265200000E296F000E216F000E096F000E016F30
:10266200000E116F000E0201896F000E886F000EBE
:10267200876F000E866F000E0401226F000E2A6F14
:10268200000E026F000E0A6F000E126F000E1A6F1C
:1026920003690B6913691B69070E236F2B690469B0
:1026A2000C6914691C690F0E246F2C69200E02013B
:1026B200176F170E726F1200000E0201A56F000E47
:1026C200A66F000EA76F000EA86F000EA96F000E76
:1026D200AA6FB00EAB6F800EAC6F000EAD6F670EBF
:1026E200AE6F000EAF6F000EB06F000EB16F000E36
:1026F200B26F000EB36F000E0A6E000E0B6E000E6C
:102702000C6EBBEC14F0000E0A6E000E0B6E000E87
:102712000C6EB4EC14F0000E0A6E000E0B6E000E7E
:102722000C6EC2EC14F0000E166E1200300E116E1A
:10273200300E126E300E136E300E146E300E156E99
:10274200000E0C6E000E0B6E54EC14F00009D8B49F
:10275200ADEF13F0AFEF13F0A5EF13F0110E0B2452
:10276200D96E050E0C20DA6EDF5096EC14F00B4A8F
:102772000C2A0CBEC6EF13F00C5009E1050E0B5CDF
:10278200D8A0C6EF13F0C8EF13F0A5EF13F01200B4
:10279200000E0301D96F000EDA6F000EDB6F000E20
:1027A200DC6F000EDF6F000EE06F000EE56F000EB3
:1027B200E76F000EEC6F000EEE6F000EEF6F000E73
:1027C200F06F000EF16F000EF26F000EF46F100E3C
:1027D200F56F000EF66F000EF76F000EF86F000E29
:1027E200F96F000EFA6F840EF36F12000FEF14F000
:1027F20054EC14F00009D8B401EF14F003EF14F014
:10280200F9EF13F00BC5F6F40CC5F7F4000EF86EF1
:102812000800F55096EC14F00B4A0C2A0BC5F6F49E
:102822000CC5F7F4000EF86E0800F5500009D8A4A4
:102832001DEF14F01FEF14F0F9EF13F0120089EC02
:1028420014F0000E3CEC14F0010E0B6E260E0C6E12
:10285200F7EC13F097EC13F0020E106E450E0F6EAC
:10286200AA0EE82EFED70F2EFCD7102EFAD722EF93
:1028720014F0FEEFFFF00E6E0EC5ECF30301F38FC2
:10288200F39DF381F3B148EF14F04AEF14F043EFF4
:1028920014F0EB510D6E0C6AEA510C240A6E000E14
:1028A2000D200B6E1200000E0A6EB2A25BEF14F046
:1028B2005DEF14F067EF14F00201ABAB63EF14F0BD
:1028C20065EF14F067EF14F0010E0A6E0A50120061
:1028D200000E0001606F000E616F000E636F000E4C
:1028E200646F000E656F000E666F000E676F000E5C
:1028F200686F1200620E0001AD6F000EAF6F000E26
:10290200B36F020EB16F000EB06F000EAC6F12000B
:1029120069EC14F009EC13F07BEC14F0C9EC13F041
:10292200A1EC14F05DEC13F012000A6EB2A29CEF5F
:1029320014F09EEF14F097EF14F00AC5A3F2120000
:10294200800E0301426F000E436F000E416F000EB6
:10295200406F1200166A156A146A136A126A116AC3
:10296200000120EF14F00AC504F50BC505F50CC5EE
:1029720006F512000AC507F50BC508F50CC509F5E1
:1029820012000AC501F50BC502F50CC503F51200CC
:020000040001F9
:04FFFC00ABEF14F063
:020000040020DA
:10000000FF0FFF0FFF0FFF0FFF0FFF0FFF0FFF0F80
:10001000FF0FFF0FFF0FFF0FFF0FFF0FFF0FFF0F70
:10002000FF0FFF0FFF0FFF0FFF0FFF0FFF0FFF0F60
:10003000FF0FFF0FFF0FFF0FFF0FFF0FFF0FFF0F50
:020000040030CA
:0A000000ECFFF7FF9FFFFFFFFFFF7B
:00000001FF
